{
  "contractName": "GridBalance",
  "abi": [
    {
      "anonymous": false,
      "inputs": [
        {
          "indexed": false,
          "internalType": "address",
          "name": "contractAddress",
          "type": "address"
        },
        {
          "indexed": false,
          "internalType": "address",
          "name": "prosumerAddress",
          "type": "address"
        }
      ],
      "name": "ProsumerRegistered",
      "type": "event"
    },
    {
      "inputs": [],
      "name": "registerProsumer",
      "outputs": [
        {
          "internalType": "address",
          "name": "",
          "type": "address"
        }
      ],
      "stateMutability": "nonpayable",
      "type": "function"
    }
  ],
  "bytecode": "0x608060405234801561001057600080fd5b506105f2806100206000396000f3fe608060405234801561001057600080fd5b506004361061002b5760003560e01c8063a381888014610030575b600080fd5b61003861004e565b6040516100459190610231565b60405180910390f35b600080339050600073ffffffffffffffffffffffffffffffffffffffff166000808373ffffffffffffffffffffffffffffffffffffffff1673ffffffffffffffffffffffffffffffffffffffff16815260200190815260200160002060009054906101000a900473ffffffffffffffffffffffffffffffffffffffff1673ffffffffffffffffffffffffffffffffffffffff16146100eb57600080fd5b600030826040516100fb906101e3565b61010692919061024c565b604051809103906000f080158015610122573d6000803e3d6000fd5b5090507f04de67d0ff102ed2c1cafb4c71015decb7b86fe76fdd68cb891f3dd84dccb1ca818360405161015692919061024c565b60405180910390a1806000808473ffffffffffffffffffffffffffffffffffffffff1673ffffffffffffffffffffffffffffffffffffffff16815260200190815260200160002060006101000a81548173ffffffffffffffffffffffffffffffffffffffff021916908373ffffffffffffffffffffffffffffffffffffffff160217905550809250505090565b6103478061027683390190565b600073ffffffffffffffffffffffffffffffffffffffff82169050919050565b600061021b826101f0565b9050919050565b61022b81610210565b82525050565b60006020820190506102466000830184610222565b92915050565b60006040820190506102616000830185610222565b61026e6020830184610222565b939250505056fe608060405234801561001057600080fd5b506040516103473803806103478339818101604052810190610032919061011d565b816000806101000a81548173ffffffffffffffffffffffffffffffffffffffff021916908373ffffffffffffffffffffffffffffffffffffffff16021790555080600160006101000a81548173ffffffffffffffffffffffffffffffffffffffff021916908373ffffffffffffffffffffffffffffffffffffffff160217905550505061015d565b600080fd5b600073ffffffffffffffffffffffffffffffffffffffff82169050919050565b60006100ea826100bf565b9050919050565b6100fa816100df565b811461010557600080fd5b50565b600081519050610117816100f1565b92915050565b60008060408385031215610134576101336100ba565b5b600061014285828601610108565b925050602061015385828601610108565b9150509250929050565b6101db8061016c6000396000f3fe608060405234801561001057600080fd5b506004361061002b5760003560e01c8063752d119014610030575b600080fd5b61004a60048036038101906100459190610136565b61004c565b005b3373ffffffffffffffffffffffffffffffffffffffff16600160009054906101000a900473ffffffffffffffffffffffffffffffffffffffff1673ffffffffffffffffffffffffffffffffffffffff16146100a657600080fd5b81600282610b4081106100bc576100bb610176565b5b01819055505050565b600080fd5b6000819050919050565b6100dd816100ca565b81146100e857600080fd5b50565b6000813590506100fa816100d4565b92915050565b6000819050919050565b61011381610100565b811461011e57600080fd5b50565b6000813590506101308161010a565b92915050565b6000806040838503121561014d5761014c6100c5565b5b600061015b858286016100eb565b925050602061016c85828601610121565b9150509250929050565b7f4e487b7100000000000000000000000000000000000000000000000000000000600052603260045260246000fdfea2646970667358221220b1303e54119b118d5587fb8c68c28ebf1688005fdb17dc399e94306423bd83ae64736f6c634300080b0033a2646970667358221220648aa5d1fe22b5035611cd7f21da6219a5ed1ce7be16f05d4428774527af24a664736f6c634300080b0033",
  "immutableReferences": {},
  "source": "// SPDX-License-Identifier: MIT\npragma solidity >=0.4.22 <0.9.0;\nimport \"./Prosumer.sol\";\ncontract GridBalance {\n    mapping(address => address) prosumerContracts;\n    event ProsumerRegistered(address contractAddress, address prosumerAddress);\n    function registerProsumer() public returns (address) {\n        address prosumerAddress = msg.sender;\n        require(prosumerContracts[prosumerAddress] == address(0x0));\n        address newProsumer = address(new Prosumer(address(this), prosumerAddress));\n        emit ProsumerRegistered(newProsumer, prosumerAddress);\n        prosumerContracts[prosumerAddress] = newProsumer;\n        return newProsumer;\n    }\n}",
  "sourcePath": "/app/contracts/GridBalance.sol",
  "compiler": {
    "name": "solc",
    "version": "0.8.11+commit.d7f03943.Emscripten.clang"
  },
  "schemaVersion": "3.4.7",
  "updatedAt": "2022-05-03T06:45:18.974Z",
  "devdoc": {
    "kind": "dev",
    "methods": {},
    "version": 1
  },
  "userdoc": {
    "kind": "user",
    "methods": {},
    "version": 1
  }
}