{
  "contractName": "Prosumer",
  "abi": [
    {
      "inputs": [
        {
          "internalType": "address",
          "name": "_gridBalanceContract",
          "type": "address"
        },
        {
          "internalType": "address",
          "name": "_prosumerAddress",
          "type": "address"
        }
      ],
      "stateMutability": "nonpayable",
      "type": "constructor"
    },
    {
      "inputs": [
        {
          "internalType": "int256",
          "name": "value",
          "type": "int256"
        },
        {
          "internalType": "uint256",
          "name": "index",
          "type": "uint256"
        }
      ],
      "name": "registerValue",
      "outputs": [],
      "stateMutability": "nonpayable",
      "type": "function"
    }
  ],
  "bytecode": "0x608060405234801561001057600080fd5b506040516103473803806103478339818101604052810190610032919061011d565b816000806101000a81548173ffffffffffffffffffffffffffffffffffffffff021916908373ffffffffffffffffffffffffffffffffffffffff16021790555080600160006101000a81548173ffffffffffffffffffffffffffffffffffffffff021916908373ffffffffffffffffffffffffffffffffffffffff160217905550505061015d565b600080fd5b600073ffffffffffffffffffffffffffffffffffffffff82169050919050565b60006100ea826100bf565b9050919050565b6100fa816100df565b811461010557600080fd5b50565b600081519050610117816100f1565b92915050565b60008060408385031215610134576101336100ba565b5b600061014285828601610108565b925050602061015385828601610108565b9150509250929050565b6101db8061016c6000396000f3fe608060405234801561001057600080fd5b506004361061002b5760003560e01c8063752d119014610030575b600080fd5b61004a60048036038101906100459190610136565b61004c565b005b3373ffffffffffffffffffffffffffffffffffffffff16600160009054906101000a900473ffffffffffffffffffffffffffffffffffffffff1673ffffffffffffffffffffffffffffffffffffffff16146100a657600080fd5b81600282610b4081106100bc576100bb610176565b5b01819055505050565b600080fd5b6000819050919050565b6100dd816100ca565b81146100e857600080fd5b50565b6000813590506100fa816100d4565b92915050565b6000819050919050565b61011381610100565b811461011e57600080fd5b50565b6000813590506101308161010a565b92915050565b6000806040838503121561014d5761014c6100c5565b5b600061015b858286016100eb565b925050602061016c85828601610121565b9150509250929050565b7f4e487b7100000000000000000000000000000000000000000000000000000000600052603260045260246000fdfea2646970667358221220b1303e54119b118d5587fb8c68c28ebf1688005fdb17dc399e94306423bd83ae64736f6c634300080b0033",
  "immutableReferences": {},
  "source": "// SPDX-License-Identifier: MIT\npragma solidity >=0.4.22 <0.9.0;\nimport \"./GridBalance.sol\";\ncontract Prosumer {\n    address gridBalanceContract;\n    address prosumerAddress;\n    int256[2880] registeredValues;\n    constructor(address _gridBalanceContract, address _prosumerAddress) {\n        gridBalanceContract = _gridBalanceContract;\n        prosumerAddress = _prosumerAddress;\n    }\n    function registerValue(int256 value, uint index) public {\n        require(prosumerAddress == msg.sender);\n        registeredValues[index] = value;\n    }\n}",
  "sourcePath": "/app/contracts/Prosumer.sol",
  "compiler": {
    "name": "solc",
    "version": "0.8.11+commit.d7f03943.Emscripten.clang"
  },
  "schemaVersion": "3.4.7",
  "updatedAt": "2022-05-03T06:45:18.992Z",
  "devdoc": {
    "kind": "dev",
    "methods": {},
    "version": 1
  },
  "userdoc": {
    "kind": "user",
    "methods": {},
    "version": 1
  }
}