{
  "contractName": "GridBalance",
  "abi": [
    {
      "anonymous": false,
      "inputs": [
        {
          "indexed": false,
          "internalType": "address",
          "name": "contractAddress",
          "type": "address"
        },
        {
          "indexed": false,
          "internalType": "address",
          "name": "prosumerAddress",
          "type": "address"
        }
      ],
      "name": "ProsumerRegistered",
      "type": "event"
    },
    {
      "anonymous": false,
      "inputs": [
        {
          "indexed": false,
          "internalType": "address",
          "name": "prosumerAddress",
          "type": "address"
        },
        {
          "indexed": false,
          "internalType": "int32",
          "name": "newBalanceState",
          "type": "int32"
        }
      ],
      "name": "imbalanceRegistered",
      "type": "event"
    },
    {
      "anonymous": false,
      "inputs": [
        {
          "indexed": false,
          "internalType": "int32",
          "name": "balanceState",
          "type": "int32"
        }
      ],
      "name": "newDRSignals",
      "type": "event"
    },
    {
      "inputs": [
        {
          "internalType": "uint32",
          "name": "_threshold",
          "type": "uint32"
        }
      ],
      "name": "registerProsumer",
      "outputs": [
        {
          "internalType": "address",
          "name": "",
          "type": "address"
        }
      ],
      "stateMutability": "nonpayable",
      "type": "function"
    },
    {
      "inputs": [],
      "name": "getRewardRate",
      "outputs": [
        {
          "internalType": "uint32",
          "name": "",
          "type": "uint32"
        }
      ],
      "stateMutability": "view",
      "type": "function",
      "constant": true
    },
    {
      "inputs": [
        {
          "internalType": "int32",
          "name": "_imbalance",
          "type": "int32"
        }
      ],
      "name": "registerProsumerImbalance",
      "outputs": [],
      "stateMutability": "nonpayable",
      "type": "function"
    }
  ],
  "bytecode": "0x60806040526001600360006101000a81548163ffffffff021916908363ffffffff1602179055506032600360086101000a81548163ffffffff021916908363ffffffff160217905550600c600560006101000a81548163ffffffff021916908363ffffffff16021790555034801561007657600080fd5b506120ef806100866000396000f3fe60806040523480156200001157600080fd5b5060043610620000465760003560e01c80630ca05c0c146200004b5780637e1a3786146200006b5780638bf90720146200008d575b600080fd5b62000069600480360381019062000063919062000678565b620000c3565b005b62000075620002a5565b604051620000849190620006cb565b60405180910390f35b620000ab6004803603810190620000a5919062000719565b620002bf565b604051620000ba919062000790565b60405180910390f35b600260003273ffffffffffffffffffffffffffffffffffffffff1673ffffffffffffffffffffffffffffffffffffffff16815260200190815260200160002060009054906101000a900460030b600360048282829054906101000a900460030b6200012f9190620007dc565b92506101000a81548163ffffffff021916908360030b63ffffffff16021790555080600360048282829054906101000a900460030b6200017091906200085e565b92506101000a81548163ffffffff021916908360030b63ffffffff16021790555080600260003273ffffffffffffffffffffffffffffffffffffffff1673ffffffffffffffffffffffffffffffffffffffff16815260200190815260200160002060006101000a81548163ffffffff021916908360030b63ffffffff1602179055506000600360049054906101000a900460030b905060008160030b12156200022557806000620002229190620007dc565b90505b600360089054906101000a900463ffffffff1663ffffffff168163ffffffff1611156200025757620002566200042b565b5b7fe4558c6bcea6b9ac5961d2484e120b2409a832a2fac6ca06a24594cc006919c132600360049054906101000a900460030b60405162000299929190620008f1565b60405180910390a15050565b6000600360009054906101000a900463ffffffff16905090565b6000803390506000308285604051620002d89062000627565b620002e6939291906200091e565b604051809103906000f08015801562000303573d6000803e3d6000fd5b5090507f04de67d0ff102ed2c1cafb4c71015decb7b86fe76fdd68cb891f3dd84dccb1ca8183604051620003399291906200095b565b60405180910390a1806000808473ffffffffffffffffffffffffffffffffffffffff1673ffffffffffffffffffffffffffffffffffffffff16815260200190815260200160002060006101000a81548173ffffffffffffffffffffffffffffffffffffffff021916908373ffffffffffffffffffffffffffffffffffffffff1602179055506001829080600181540180825580915050600190039060005260206000200160009091909190916101000a81548173ffffffffffffffffffffffffffffffffffffffff021916908373ffffffffffffffffffffffffffffffffffffffff1602179055508092505050919050565b60004290506002600560009054906101000a900463ffffffff1662000451919062000988565b63ffffffff1660045482620004679190620009d7565b101562000475575062000625565b60005b600180549050811015620005d357600080600060018481548110620004a257620004a162000a12565b5b9060005260206000200160009054906101000a900473ffffffffffffffffffffffffffffffffffffffff1673ffffffffffffffffffffffffffffffffffffffff1673ffffffffffffffffffffffffffffffffffffffff16815260200190815260200160002060009054906101000a900473ffffffffffffffffffffffffffffffffffffffff1690508073ffffffffffffffffffffffffffffffffffffffff1663c6024a54600360049054906101000a900460030b600560009054906101000a900463ffffffff166040518363ffffffff1660e01b81526004016200058892919062000a41565b600060405180830381600087803b158015620005a357600080fd5b505af1158015620005b8573d6000803e3d6000fd5b50505050508080620005ca9062000a6e565b91505062000478565b507f889c290b7e15ec2942c03edeccc70ce5effdd11797aa4d0cee6237383bac51c5600360049054906101000a900460030b60405162000614919062000abc565b60405180910390a180600481905550505b565b6115e08062000ada83390190565b600080fd5b60008160030b9050919050565b62000652816200063a565b81146200065e57600080fd5b50565b600081359050620006728162000647565b92915050565b60006020828403121562000691576200069062000635565b5b6000620006a18482850162000661565b91505092915050565b600063ffffffff82169050919050565b620006c581620006aa565b82525050565b6000602082019050620006e26000830184620006ba565b92915050565b620006f381620006aa565b8114620006ff57600080fd5b50565b6000813590506200071381620006e8565b92915050565b60006020828403121562000732576200073162000635565b5b6000620007428482850162000702565b91505092915050565b600073ffffffffffffffffffffffffffffffffffffffff82169050919050565b600062000778826200074b565b9050919050565b6200078a816200076b565b82525050565b6000602082019050620007a760008301846200077f565b92915050565b7f4e487b7100000000000000000000000000000000000000000000000000000000600052601160045260246000fd5b6000620007e9826200063a565b9150620007f6836200063a565b9250827fffffffffffffffffffffffffffffffffffffffffffffffffffffffff8000000001821260008412151615620008345762000833620007ad565b5b82637fffffff018213600084121615620008535762000852620007ad565b5b828203905092915050565b60006200086b826200063a565b915062000878836200063a565b925081637fffffff038313600083121516156200089a5762000899620007ad565b5b817fffffffffffffffffffffffffffffffffffffffffffffffffffffffff80000000038312600083121615620008d557620008d4620007ad565b5b828201905092915050565b620008eb816200063a565b82525050565b60006040820190506200090860008301856200077f565b620009176020830184620008e0565b9392505050565b60006060820190506200093560008301866200077f565b6200094460208301856200077f565b620009536040830184620006ba565b949350505050565b60006040820190506200097260008301856200077f565b6200098160208301846200077f565b9392505050565b60006200099582620006aa565b9150620009a283620006aa565b92508163ffffffff0483118215151615620009c257620009c1620007ad565b5b828202905092915050565b6000819050919050565b6000620009e482620009cd565b9150620009f183620009cd565b92508282101562000a075762000a06620007ad565b5b828203905092915050565b7f4e487b7100000000000000000000000000000000000000000000000000000000600052603260045260246000fd5b600060408201905062000a586000830185620008e0565b62000a676020830184620006ba565b9392505050565b600062000a7b82620009cd565b91507fffffffffffffffffffffffffffffffffffffffffffffffffffffffffffffffff82141562000ab15762000ab0620007ad565b5b600182019050919050565b600060208201905062000ad36000830184620008e0565b9291505056fe60806040523480156200001157600080fd5b50604051620015e0380380620015e0833981810160405281019062000037919062000209565b826000806101000a81548173ffffffffffffffffffffffffffffffffffffffff021916908373ffffffffffffffffffffffffffffffffffffffff16021790555081600160006101000a81548173ffffffffffffffffffffffffffffffffffffffff021916908373ffffffffffffffffffffffffffffffffffffffff16021790555080600160146101000a81548163ffffffff021916908363ffffffff1602179055506000600860006101000a81548161ffff021916908361ffff1602179055506000600860026101000a81548161ffff021916908361ffff1602179055506000600860066101000a81548163ffffffff021916908363ffffffff1602179055506000600860046101000a81548161ffff021916908361ffff16021790555050505062000265565b600080fd5b600073ffffffffffffffffffffffffffffffffffffffff82169050919050565b6000620001908262000163565b9050919050565b620001a28162000183565b8114620001ae57600080fd5b50565b600081519050620001c28162000197565b92915050565b600063ffffffff82169050919050565b620001e381620001c8565b8114620001ef57600080fd5b50565b6000815190506200020381620001d8565b92915050565b6000806000606084860312156200022557620002246200015e565b5b60006200023586828701620001b1565b93505060206200024886828701620001b1565b92505060406200025b86828701620001f2565b9150509250925092565b61136b80620002756000396000f3fe608060405234801561001057600080fd5b506004361061004c5760003560e01c80632a60af1714610051578063384f4a131461006d578063a049c6201461009d578063c6024a54146100b9575b600080fd5b61006b600480360381019061006691906108e7565b6100d5565b005b6100876004803603810190610082919061094e565b610569565b604051610094919061098a565b60405180910390f35b6100b760048036038101906100b29190610a0a565b6105a3565b005b6100d360048036038101906100ce9190610aa6565b61065d565b005b806002600860009054906101000a900461ffff1661ffff16600c81106100fe576100fd610ae6565b5b600891828204019190066004026101000a81548163ffffffff021916908360030b63ffffffff160217905550610143600860009054906101000a900461ffff16610879565b600860006101000a81548161ffff021916908361ffff160217905550600160009054906101000a900473ffffffffffffffffffffffffffffffffffffffff1673ffffffffffffffffffffffffffffffffffffffff167fb679f5a662161df553d1cd71572e4d5e6991a007e54b776e6e819b90becf5ee5826040516101c79190610b5a565b60405180910390a260008060009054906101000a900473ffffffffffffffffffffffffffffffffffffffff1690506000600860029054906101000a900461ffff1661ffff16600860069054906101000a900463ffffffff1663ffffffff161015610273576004600860029054906101000a900461ffff1661ffff16600c811061025357610252610ae6565b5b600891828204019190066004029054906101000a900460030b90506102b7565b6006600860049054906101000a900461ffff1661ffff16600c811061029b5761029a610ae6565b5b600891828204019190066004029054906101000a900460030b90505b600083826102c59190610ba4565b90508060006102d49190610ba4565b9050600081905060008473ffffffffffffffffffffffffffffffffffffffff16637e1a37866040518163ffffffff1660e01b8152600401602060405180830381865afa158015610328573d6000803e3d6000fd5b505050506040513d601f19601f8201168201806040525081019061034c9190610c31565b9050600160149054906101000a900463ffffffff1663ffffffff168263ffffffff16111561040957600160149054906101000a900463ffffffff1681600160149054906101000a900463ffffffff16846103a69190610c5e565b60646103b29190610c92565b6103bc9190610c92565b6103c69190610da0565b6008600a8282829054906101000a900460030b6103e39190610ba4565b92506101000a81548163ffffffff021916908360030b63ffffffff1602179055506104c1565b600160149054906101000a900463ffffffff1663ffffffff168263ffffffff1610156104c057600160149054906101000a900463ffffffff168183600160149054906101000a900463ffffffff166104619190610c5e565b606461046d9190610c92565b6104779190610c92565b6104819190610da0565b6008600a8282829054906101000a900460030b61049e9190610e0a565b92506101000a81548163ffffffff021916908360030b63ffffffff1602179055505b5b8473ffffffffffffffffffffffffffffffffffffffff16630ca05c0c846040518263ffffffff1660e01b81526004016104fa919061098a565b600060405180830381600087803b15801561051457600080fd5b505af1158015610528573d6000803e3d6000fd5b50505050610545600860029054906101000a900461ffff16610879565b600860026101000a81548161ffff021916908361ffff160217905550505050505050565b600060028261ffff16600c811061058357610582610ae6565b5b600891828204019190066004029054906101000a900460030b9050919050565b6000600860046101000a81548161ffff021916908361ffff16021790555060005b8161ffff168161ffff1610156106575783838261ffff168181106105eb576105ea610ae6565b5b905060200201602081019061060091906108e7565b60068261ffff16600c811061061857610617610ae6565b5b600891828204019190066004026101000a81548163ffffffff021916908360030b63ffffffff160217905550808061064f90610e82565b9150506105c4565b50505050565b6000600860026101000a81548161ffff021916908361ffff16021790555060005b8163ffffffff168110156107ce576000600682600c81106106a2576106a1610ae6565b5b600891828204019190066004029054906101000a900460030b60030b141561070b576000600482600c81106106da576106d9610ae6565b5b600891828204019190066004026101000a81548163ffffffff021916908360030b63ffffffff1602179055506107bb565b600681600c811061071f5761071e610ae6565b5b600891828204019190066004029054906101000a900460030b836107439190610da0565b600682600c811061075757610756610ae6565b5b600891828204019190066004029054906101000a900460030b61077a9190610e0a565b600482600c811061078e5761078d610ae6565b5b600891828204019190066004026101000a81548163ffffffff021916908360030b63ffffffff1602179055505b80806107c690610eb7565b91505061067e565b5080600860066101000a81548163ffffffff021916908363ffffffff160217905550600160009054906101000a900473ffffffffffffffffffffffffffffffffffffffff1673ffffffffffffffffffffffffffffffffffffffff167fb964d3e24baf92175de5a958f26e731ff8f39d592e5f0aeadc8fe91e3d967d2f6004600860069054906101000a900463ffffffff1660405161086d9291906112d2565b60405180910390a25050565b600060018261088891906112fd565b9150600c8261ffff16141561089c57600091505b819050919050565b600080fd5b600080fd5b60008160030b9050919050565b6108c4816108ae565b81146108cf57600080fd5b50565b6000813590506108e1816108bb565b92915050565b6000602082840312156108fd576108fc6108a4565b5b600061090b848285016108d2565b91505092915050565b600061ffff82169050919050565b61092b81610914565b811461093657600080fd5b50565b60008135905061094881610922565b92915050565b600060208284031215610964576109636108a4565b5b600061097284828501610939565b91505092915050565b610984816108ae565b82525050565b600060208201905061099f600083018461097b565b92915050565b600080fd5b600080fd5b600080fd5b60008083601f8401126109ca576109c96109a5565b5b8235905067ffffffffffffffff8111156109e7576109e66109aa565b5b602083019150836020820283011115610a0357610a026109af565b5b9250929050565b600080600060408486031215610a2357610a226108a4565b5b600084013567ffffffffffffffff811115610a4157610a406108a9565b5b610a4d868287016109b4565b93509350506020610a6086828701610939565b9150509250925092565b600063ffffffff82169050919050565b610a8381610a6a565b8114610a8e57600080fd5b50565b600081359050610aa081610a7a565b92915050565b60008060408385031215610abd57610abc6108a4565b5b6000610acb858286016108d2565b9250506020610adc85828601610a91565b9150509250929050565b7f4e487b7100000000000000000000000000000000000000000000000000000000600052603260045260246000fd5b6000819050919050565b6000819050919050565b6000610b44610b3f610b3a846108ae565b610b1f565b610b15565b9050919050565b610b5481610b29565b82525050565b6000602082019050610b6f6000830184610b4b565b92915050565b7f4e487b7100000000000000000000000000000000000000000000000000000000600052601160045260246000fd5b6000610baf826108ae565b9150610bba836108ae565b9250827fffffffffffffffffffffffffffffffffffffffffffffffffffffffff8000000001821260008412151615610bf557610bf4610b75565b5b82637fffffff018213600084121615610c1157610c10610b75565b5b828203905092915050565b600081519050610c2b81610a7a565b92915050565b600060208284031215610c4757610c466108a4565b5b6000610c5584828501610c1c565b91505092915050565b6000610c6982610a6a565b9150610c7483610a6a565b925082821015610c8757610c86610b75565b5b828203905092915050565b6000610c9d826108ae565b9150610ca8836108ae565b925082637fffffff0482116000841360008413161615610ccb57610cca610b75565b5b817fffffffffffffffffffffffffffffffffffffffffffffffffffffffff800000000583126000841260008413161615610d0857610d07610b75565b5b827fffffffffffffffffffffffffffffffffffffffffffffffffffffffff800000000582126000841360008412161615610d4557610d44610b75565b5b82637fffffff0582126000841260008412161615610d6657610d65610b75565b5b828202905092915050565b7f4e487b7100000000000000000000000000000000000000000000000000000000600052601260045260246000fd5b6000610dab826108ae565b9150610db6836108ae565b925082610dc657610dc5610d71565b5b600160000383147fffffffffffffffffffffffffffffffffffffffffffffffffffffffff8000000083141615610dff57610dfe610b75565b5b828205905092915050565b6000610e15826108ae565b9150610e20836108ae565b925081637fffffff03831360008312151615610e3f57610e3e610b75565b5b817fffffffffffffffffffffffffffffffffffffffffffffffffffffffff80000000038312600083121615610e7757610e76610b75565b5b828201905092915050565b6000610e8d82610914565b915061ffff821415610ea257610ea1610b75565b5b600182019050919050565b6000819050919050565b6000610ec282610ead565b91507fffffffffffffffffffffffffffffffffffffffffffffffffffffffffffffffff821415610ef557610ef4610b75565b5b600182019050919050565b6000600c9050919050565b600081905092915050565b6000819050919050565b610f29816108ae565b82525050565b60008160001c9050919050565b60008160030b9050919050565b6000610f5c610f5783610f2f565b610f3c565b9050919050565b60008160201c9050919050565b6000610f83610f7e83610f63565b610f3c565b9050919050565b60008160401c9050919050565b6000610faa610fa583610f8a565b610f3c565b9050919050565b60008160601c9050919050565b6000610fd1610fcc83610fb1565b610f3c565b9050919050565b60008160801c9050919050565b6000610ff8610ff383610fd8565b610f3c565b9050919050565b60008160a01c9050919050565b600061101f61101a83610fff565b610f3c565b9050919050565b60008160c01c9050919050565b600061104661104183611026565b610f3c565b9050919050565b60008160e01c9050919050565b600061106d6110688361104d565b610f3c565b9050919050565b61107d81610f00565b6110878184610f0b565b92508261109383610f16565b6000600115611180575b8360016008038201101561117f5781546110bf876110ba83610f49565b610f20565b6020870196506110d7876110d283610f70565b610f20565b6020870196506110ef876110ea83610f97565b610f20565b6020870196506111078761110283610fbe565b610f20565b60208701965061111f8761111a83610fe5565b610f20565b602087019650611137876111328361100c565b610f20565b60208701965061114f8761114a83611033565b610f20565b602087019650611167876111628361105a565b610f20565b6020870196506001830192505060088101905061109d565b5b6001156112bb5781546001156111af576111a28761119d83610f49565b610f20565b6020870196506001820191505b6001156111d5576111c8876111c383610f70565b610f20565b6020870196506001820191505b6001156111fb576111ee876111e983610f97565b610f20565b6020870196506001820191505b600115611221576112148761120f83610fbe565b610f20565b6020870196506001820191505b6000156112475761123a8761123583610fe5565b610f20565b6020870196506001820191505b60001561126d576112608761125b8361100c565b610f20565b6020870196506001820191505b600015611293576112868761128183611033565b610f20565b6020870196506001820191505b6000156112b9576112ac876112a78361105a565b610f20565b6020870196506001820191505b505b505050505050565b6112cc81610a6a565b82525050565b60006101a0820190506112e86000830185611074565b6112f66101808301846112c3565b9392505050565b600061130882610914565b915061131383610914565b92508261ffff0382111561132a57611329610b75565b5b82820190509291505056fea2646970667358221220f0a395fe17e06510c4c44deb0be31200ff94e1931dd802277965a4889f20465764736f6c634300080b0033a2646970667358221220eb272b3c3df30d4e57d0d67677962f28c38e81a79009532d93d084c7263bb7c664736f6c634300080b0033",
  "immutableReferences": {},
  "source": "// SPDX-License-Identifier: GPL-3.0\n\npragma solidity >=0.7.0 <0.9.0;\n\n/**\n * @title Storage\n * @dev Store & retrieve value in a variable\n */\nimport \"./Prosumer.sol\";\n\ncontract GridBalance {\n    mapping(address => address) private prosumerContracts;\n    address[] private registeredProsumers;\n    mapping(address => int32) private prosumerImbalances;\n    event ProsumerRegistered(address contractAddress, address prosumerAddress);\n    event newDRSignals(int32 balanceState);\n    event imbalanceRegistered(address prosumerAddress, int32 newBalanceState);\n    uint32 private rewardRate = 1;\n    int32 balanceState;\n    uint32 gridThreshold = 50; // when ~= 0 island mode\n    uint256 DRStart;\n    uint32 DRLength = 12;\n\n    function registerProsumer(uint32 _threshold) public returns (address) {\n        address prosumerAddress = msg.sender;\n        // require(prosumerContracts[prosumerAddress] == address(0x0));\n        address newProsumer = address(\n            new Prosumer(address(this), prosumerAddress, _threshold)\n        );\n        emit ProsumerRegistered(newProsumer, prosumerAddress);\n        prosumerContracts[prosumerAddress] = newProsumer;\n        registeredProsumers.push(prosumerAddress);\n        return newProsumer;\n    }\n\n    function getRewardRate() external view returns (uint32) {\n        // require(prosumerContracts[tx.origin] == msg.sender);\n        return rewardRate; // TODO: setter and private var that modifies - increases with grid imbalance\n    }\n\n    function registerProsumerImbalance(int32 _imbalance) external {\n        // require(prosumerContracts[tx.origin] == msg.sender); // the Prosumer contract that called the function is registered for the prosumer account address that began the transaction\n        balanceState -= prosumerImbalances[tx.origin];\n        balanceState += _imbalance;\n        prosumerImbalances[tx.origin] = _imbalance;\n        int32 absBalanceState = balanceState;\n        if (absBalanceState < 0) absBalanceState = 0 - absBalanceState;\n        if (uint32(absBalanceState) > gridThreshold) sendDRSignals();\n        emit imbalanceRegistered(tx.origin, balanceState);\n    }\n\n    function sendDRSignals() private {\n        uint256 nowTimestamp = block.timestamp;\n        if (nowTimestamp - DRStart < DRLength * 2)\n            // if not every second i should multiply DRLength with period T\n            return;\n        for (uint256 i = 0; i < registeredProsumers.length; i++) {\n            Prosumer prosumer = Prosumer(\n                prosumerContracts[registeredProsumers[i]]\n            );\n            prosumer.actualizeDRSignal(balanceState, DRLength);\n            // TODO reset imbalances and balance state?\n        }\n        emit newDRSignals(balanceState);\n        DRStart = nowTimestamp;\n    }\n\n    // function to change DR len, reward rate\n}\n",
  "sourcePath": "/app/contracts/GridBalance.sol",
  "compiler": {
    "name": "solc",
    "version": "0.8.11+commit.d7f03943.Emscripten.clang"
  },
  "schemaVersion": "3.4.7",
  "updatedAt": "2022-07-02T12:59:52.178Z",
  "networkType": "ethereum",
  "devdoc": {
    "kind": "dev",
    "methods": {},
    "version": 1
  },
  "userdoc": {
    "kind": "user",
    "methods": {},
    "version": 1
  }
}