{
  "contractName": "Prosumer",
  "abi": [
    {
      "inputs": [
        {
          "internalType": "address",
          "name": "_gridBalanceContract",
          "type": "address"
        },
        {
          "internalType": "address",
          "name": "_prosumerAddress",
          "type": "address"
        }
      ],
      "stateMutability": "nonpayable",
      "type": "constructor"
    },
    {
      "anonymous": false,
      "inputs": [
        {
          "indexed": false,
          "internalType": "address",
          "name": "prosumerAddress",
          "type": "address"
        },
        {
          "indexed": false,
          "internalType": "uint256",
          "name": "index",
          "type": "uint256"
        }
      ],
      "name": "ValueRegistered",
      "type": "event"
    },
    {
      "inputs": [
        {
          "internalType": "int256",
          "name": "value",
          "type": "int256"
        },
        {
          "internalType": "uint256",
          "name": "index",
          "type": "uint256"
        }
      ],
      "name": "registerValue",
      "outputs": [],
      "stateMutability": "nonpayable",
      "type": "function"
    },
    {
      "inputs": [
        {
          "internalType": "uint256",
          "name": "index",
          "type": "uint256"
        }
      ],
      "name": "getValue",
      "outputs": [
        {
          "internalType": "int256",
          "name": "",
          "type": "int256"
        }
      ],
      "stateMutability": "view",
      "type": "function"
    }
  ],
  "bytecode": "0x608060405234801561001057600080fd5b506040516105273803806105278339818101604052810190610032919061011d565b816000806101000a81548173ffffffffffffffffffffffffffffffffffffffff021916908373ffffffffffffffffffffffffffffffffffffffff16021790555080600160006101000a81548173ffffffffffffffffffffffffffffffffffffffff021916908373ffffffffffffffffffffffffffffffffffffffff160217905550505061015d565b600080fd5b600073ffffffffffffffffffffffffffffffffffffffff82169050919050565b60006100ea826100bf565b9050919050565b6100fa816100df565b811461010557600080fd5b50565b600081519050610117816100f1565b92915050565b60008060408385031215610134576101336100ba565b5b600061014285828601610108565b925050602061015385828601610108565b9150509250929050565b6103bb8061016c6000396000f3fe608060405234801561001057600080fd5b50600436106100365760003560e01c80630ff4c9161461003b578063752d11901461006b575b600080fd5b61005560048036038101906100509190610210565b610087565b6040516100629190610256565b60405180910390f35b6100856004803603810190610080919061029d565b610101565b005b60003373ffffffffffffffffffffffffffffffffffffffff16600160009054906101000a900473ffffffffffffffffffffffffffffffffffffffff1673ffffffffffffffffffffffffffffffffffffffff16146100e357600080fd5b600282610b4081106100f8576100f76102dd565b5b01549050919050565b3373ffffffffffffffffffffffffffffffffffffffff16600160009054906101000a900473ffffffffffffffffffffffffffffffffffffffff1673ffffffffffffffffffffffffffffffffffffffff161461015b57600080fd5b81600282610b408110610171576101706102dd565b5b01819055507f2584888d5978de628eca5fb81356074833d5c65eca5fed7371b6d8e08234ff5a600160009054906101000a900473ffffffffffffffffffffffffffffffffffffffff16826040516101c992919061035c565b60405180910390a15050565b600080fd5b6000819050919050565b6101ed816101da565b81146101f857600080fd5b50565b60008135905061020a816101e4565b92915050565b600060208284031215610226576102256101d5565b5b6000610234848285016101fb565b91505092915050565b6000819050919050565b6102508161023d565b82525050565b600060208201905061026b6000830184610247565b92915050565b61027a8161023d565b811461028557600080fd5b50565b60008135905061029781610271565b92915050565b600080604083850312156102b4576102b36101d5565b5b60006102c285828601610288565b92505060206102d3858286016101fb565b9150509250929050565b7f4e487b7100000000000000000000000000000000000000000000000000000000600052603260045260246000fd5b600073ffffffffffffffffffffffffffffffffffffffff82169050919050565b60006103378261030c565b9050919050565b6103478161032c565b82525050565b610356816101da565b82525050565b6000604082019050610371600083018561033e565b61037e602083018461034d565b939250505056fea264697066735822122082c51e4317b45cd6b152acee347545950b918bb4ac38286c4d5d947517d1b72164736f6c634300080b0033",
  "immutableReferences": {},
  "source": "// SPDX-License-Identifier: MIT\npragma solidity >=0.4.22 <0.9.0;\nimport \"./GridBalance.sol\";\n\ncontract Prosumer {\n    address gridBalanceContract;\n    address prosumerAddress;\n    int256[2880] registeredValues;\n    event ValueRegistered(address prosumerAddress, uint256 index);\n\n    constructor(address _gridBalanceContract, address _prosumerAddress) {\n        gridBalanceContract = _gridBalanceContract;\n        prosumerAddress = _prosumerAddress;\n    }\n\n    function registerValue(int256 value, uint256 index) public {\n        require(prosumerAddress == msg.sender);\n        registeredValues[index] = value;\n        emit ValueRegistered(prosumerAddress, index);\n    }\n\n    function getValue(uint256 index) public view returns (int256) {\n        require(prosumerAddress == msg.sender);\n        return registeredValues[index];\n    }\n}\n",
  "sourcePath": "/app/contracts/Prosumer.sol",
  "compiler": {
    "name": "solc",
    "version": "0.8.11+commit.d7f03943.Emscripten.clang"
  },
  "schemaVersion": "3.4.7",
  "updatedAt": "2022-05-10T09:53:01.749Z",
  "devdoc": {
    "kind": "dev",
    "methods": {},
    "version": 1
  },
  "userdoc": {
    "kind": "user",
    "methods": {},
    "version": 1
  }
}