{
  "contractName": "Prosumer",
  "abi": [
    {
      "inputs": [
        {
          "internalType": "address",
          "name": "_gridBalanceContract",
          "type": "address"
        },
        {
          "internalType": "address",
          "name": "_prosumerAddress",
          "type": "address"
        },
        {
          "internalType": "uint32",
          "name": "_threshold",
          "type": "uint32"
        }
      ],
      "stateMutability": "nonpayable",
      "type": "constructor"
    },
    {
      "anonymous": false,
      "inputs": [
        {
          "indexed": true,
          "internalType": "address",
          "name": "prosumerAddress",
          "type": "address"
        },
        {
          "indexed": false,
          "internalType": "int32[12]",
          "name": "DRSignal",
          "type": "int32[12]"
        },
        {
          "indexed": false,
          "internalType": "uint32",
          "name": "DRLength",
          "type": "uint32"
        }
      ],
      "name": "registeredDRSignal",
      "type": "event"
    },
    {
      "anonymous": false,
      "inputs": [
        {
          "indexed": true,
          "internalType": "address",
          "name": "prosumerAddress",
          "type": "address"
        },
        {
          "indexed": false,
          "internalType": "int256",
          "name": "value",
          "type": "int256"
        }
      ],
      "name": "valueRegistered",
      "type": "event"
    },
    {
      "inputs": [
        {
          "internalType": "int32",
          "name": "value",
          "type": "int32"
        }
      ],
      "name": "registerValue",
      "outputs": [],
      "stateMutability": "nonpayable",
      "type": "function"
    },
    {
      "inputs": [
        {
          "internalType": "int32[]",
          "name": "_baselineValues",
          "type": "int32[]"
        },
        {
          "internalType": "uint16",
          "name": "_length",
          "type": "uint16"
        }
      ],
      "name": "actualizeBaseline",
      "outputs": [],
      "stateMutability": "nonpayable",
      "type": "function"
    },
    {
      "inputs": [
        {
          "internalType": "int32",
          "name": "_balanceState",
          "type": "int32"
        },
        {
          "internalType": "uint32",
          "name": "_DRLength",
          "type": "uint32"
        }
      ],
      "name": "actualizeDRSignal",
      "outputs": [],
      "stateMutability": "nonpayable",
      "type": "function"
    },
    {
      "inputs": [
        {
          "internalType": "bytes32",
          "name": "_hash",
          "type": "bytes32"
        }
      ],
      "name": "registerHash",
      "outputs": [],
      "stateMutability": "nonpayable",
      "type": "function"
    },
    {
      "inputs": [],
      "name": "getHash",
      "outputs": [
        {
          "internalType": "bytes32",
          "name": "",
          "type": "bytes32"
        }
      ],
      "stateMutability": "view",
      "type": "function"
    }
  ],
  "bytecode": "0x60806040523480156200001157600080fd5b5060405162001587380380620015878339818101604052810190620000379190620001eb565b826000806101000a81548173ffffffffffffffffffffffffffffffffffffffff021916908373ffffffffffffffffffffffffffffffffffffffff16021790555081600160006101000a81548173ffffffffffffffffffffffffffffffffffffffff021916908373ffffffffffffffffffffffffffffffffffffffff16021790555080600160146101000a81548163ffffffff021916908363ffffffff1602179055506000600660006101000a81548161ffff021916908361ffff1602179055506000600660046101000a81548163ffffffff021916908363ffffffff1602179055506000600660026101000a81548161ffff021916908361ffff16021790555050505062000247565b600080fd5b600073ffffffffffffffffffffffffffffffffffffffff82169050919050565b6000620001728262000145565b9050919050565b620001848162000165565b81146200019057600080fd5b50565b600081519050620001a48162000179565b92915050565b600063ffffffff82169050919050565b620001c581620001aa565b8114620001d157600080fd5b50565b600081519050620001e581620001ba565b92915050565b60008060006060848603121562000207576200020662000140565b5b6000620002178682870162000193565b93505060206200022a8682870162000193565b92505060406200023d86828701620001d4565b9150509250925092565b61133080620002576000396000f3fe608060405234801561001057600080fd5b50600436106100575760003560e01c80632a60af171461005c5780638f1de16e14610078578063a049c62014610094578063c6024a54146100b0578063d13319c4146100cc575b600080fd5b6100766004803603810190610071919061084c565b6100ea565b005b610092600480360381019061008d91906108af565b6104f4565b005b6100ae60048036038101906100a9919061097b565b6104fe565b005b6100ca60048036038101906100c59190610a17565b6105b8565b005b6100d46107d4565b6040516100e19190610a66565b60405180910390f35b600160009054906101000a900473ffffffffffffffffffffffffffffffffffffffff1673ffffffffffffffffffffffffffffffffffffffff167fb679f5a662161df553d1cd71572e4d5e6991a007e54b776e6e819b90becf5ee5826040516101529190610ac6565b60405180910390a260008060009054906101000a900473ffffffffffffffffffffffffffffffffffffffff1690506000600660009054906101000a900461ffff1661ffff16600660049054906101000a900463ffffffff1663ffffffff1610156101fe576002600660009054906101000a900461ffff1661ffff16600c81106101de576101dd610ae1565b5b600891828204019190066004029054906101000a900460030b9050610242565b6004600660029054906101000a900461ffff1661ffff16600c811061022657610225610ae1565b5b600891828204019190066004029054906101000a900460030b90505b600083826102509190610b3f565b905080600061025f9190610b3f565b9050600081905060008473ffffffffffffffffffffffffffffffffffffffff16637e1a37866040518163ffffffff1660e01b8152600401602060405180830381865afa1580156102b3573d6000803e3d6000fd5b505050506040513d601f19601f820116820180604052508101906102d79190610bcc565b9050600160149054906101000a900463ffffffff1663ffffffff168263ffffffff16111561039457600160149054906101000a900463ffffffff1681600160149054906101000a900463ffffffff16846103319190610bf9565b606461033d9190610c2d565b6103479190610c2d565b6103519190610d3b565b600660088282829054906101000a900460030b61036e9190610b3f565b92506101000a81548163ffffffff021916908360030b63ffffffff16021790555061044c565b600160149054906101000a900463ffffffff1663ffffffff168263ffffffff16101561044b57600160149054906101000a900463ffffffff168183600160149054906101000a900463ffffffff166103ec9190610bf9565b60646103f89190610c2d565b6104029190610c2d565b61040c9190610d3b565b600660088282829054906101000a900460030b6104299190610da5565b92506101000a81548163ffffffff021916908360030b63ffffffff1602179055505b5b8473ffffffffffffffffffffffffffffffffffffffff16630ca05c0c846040518263ffffffff1660e01b81526004016104859190610e2c565b600060405180830381600087803b15801561049f57600080fd5b505af11580156104b3573d6000803e3d6000fd5b505050506104d0600660009054906101000a900461ffff166107de565b600660006101000a81548161ffff021916908361ffff160217905550505050505050565b8060078190555050565b6000600660026101000a81548161ffff021916908361ffff16021790555060005b8161ffff168161ffff1610156105b25783838261ffff1681811061054657610545610ae1565b5b905060200201602081019061055b919061084c565b60048261ffff16600c811061057357610572610ae1565b5b600891828204019190066004026101000a81548163ffffffff021916908360030b63ffffffff16021790555080806105aa90610e47565b91505061051f565b50505050565b6000600660006101000a81548161ffff021916908361ffff16021790555060005b8163ffffffff16811015610729576000600482600c81106105fd576105fc610ae1565b5b600891828204019190066004029054906101000a900460030b60030b1415610666576000600282600c811061063557610634610ae1565b5b600891828204019190066004026101000a81548163ffffffff021916908360030b63ffffffff160217905550610716565b600481600c811061067a57610679610ae1565b5b600891828204019190066004029054906101000a900460030b8361069e9190610d3b565b600482600c81106106b2576106b1610ae1565b5b600891828204019190066004029054906101000a900460030b6106d59190610da5565b600282600c81106106e9576106e8610ae1565b5b600891828204019190066004026101000a81548163ffffffff021916908360030b63ffffffff1602179055505b808061072190610e7c565b9150506105d9565b5080600660046101000a81548163ffffffff021916908363ffffffff160217905550600160009054906101000a900473ffffffffffffffffffffffffffffffffffffffff1673ffffffffffffffffffffffffffffffffffffffff167fb964d3e24baf92175de5a958f26e731ff8f39d592e5f0aeadc8fe91e3d967d2f6002600660049054906101000a900463ffffffff166040516107c8929190611297565b60405180910390a25050565b6000600754905090565b60006001826107ed91906112c2565b9150600c8261ffff16141561080157600091505b819050919050565b600080fd5b600080fd5b60008160030b9050919050565b61082981610813565b811461083457600080fd5b50565b60008135905061084681610820565b92915050565b60006020828403121561086257610861610809565b5b600061087084828501610837565b91505092915050565b6000819050919050565b61088c81610879565b811461089757600080fd5b50565b6000813590506108a981610883565b92915050565b6000602082840312156108c5576108c4610809565b5b60006108d38482850161089a565b91505092915050565b600080fd5b600080fd5b600080fd5b60008083601f840112610901576109006108dc565b5b8235905067ffffffffffffffff81111561091e5761091d6108e1565b5b60208301915083602082028301111561093a576109396108e6565b5b9250929050565b600061ffff82169050919050565b61095881610941565b811461096357600080fd5b50565b6000813590506109758161094f565b92915050565b60008060006040848603121561099457610993610809565b5b600084013567ffffffffffffffff8111156109b2576109b161080e565b5b6109be868287016108eb565b935093505060206109d186828701610966565b9150509250925092565b600063ffffffff82169050919050565b6109f4816109db565b81146109ff57600080fd5b50565b600081359050610a11816109eb565b92915050565b60008060408385031215610a2e57610a2d610809565b5b6000610a3c85828601610837565b9250506020610a4d85828601610a02565b9150509250929050565b610a6081610879565b82525050565b6000602082019050610a7b6000830184610a57565b92915050565b6000819050919050565b6000819050919050565b6000610ab0610aab610aa684610813565b610a8b565b610a81565b9050919050565b610ac081610a95565b82525050565b6000602082019050610adb6000830184610ab7565b92915050565b7f4e487b7100000000000000000000000000000000000000000000000000000000600052603260045260246000fd5b7f4e487b7100000000000000000000000000000000000000000000000000000000600052601160045260246000fd5b6000610b4a82610813565b9150610b5583610813565b9250827fffffffffffffffffffffffffffffffffffffffffffffffffffffffff8000000001821260008412151615610b9057610b8f610b10565b5b82637fffffff018213600084121615610bac57610bab610b10565b5b828203905092915050565b600081519050610bc6816109eb565b92915050565b600060208284031215610be257610be1610809565b5b6000610bf084828501610bb7565b91505092915050565b6000610c04826109db565b9150610c0f836109db565b925082821015610c2257610c21610b10565b5b828203905092915050565b6000610c3882610813565b9150610c4383610813565b925082637fffffff0482116000841360008413161615610c6657610c65610b10565b5b817fffffffffffffffffffffffffffffffffffffffffffffffffffffffff800000000583126000841260008413161615610ca357610ca2610b10565b5b827fffffffffffffffffffffffffffffffffffffffffffffffffffffffff800000000582126000841360008412161615610ce057610cdf610b10565b5b82637fffffff0582126000841260008412161615610d0157610d00610b10565b5b828202905092915050565b7f4e487b7100000000000000000000000000000000000000000000000000000000600052601260045260246000fd5b6000610d4682610813565b9150610d5183610813565b925082610d6157610d60610d0c565b5b600160000383147fffffffffffffffffffffffffffffffffffffffffffffffffffffffff8000000083141615610d9a57610d99610b10565b5b828205905092915050565b6000610db082610813565b9150610dbb83610813565b925081637fffffff03831360008312151615610dda57610dd9610b10565b5b817fffffffffffffffffffffffffffffffffffffffffffffffffffffffff80000000038312600083121615610e1257610e11610b10565b5b828201905092915050565b610e2681610813565b82525050565b6000602082019050610e416000830184610e1d565b92915050565b6000610e5282610941565b915061ffff821415610e6757610e66610b10565b5b600182019050919050565b6000819050919050565b6000610e8782610e72565b91507fffffffffffffffffffffffffffffffffffffffffffffffffffffffffffffffff821415610eba57610eb9610b10565b5b600182019050919050565b6000600c9050919050565b600081905092915050565b6000819050919050565b610eee81610813565b82525050565b60008160001c9050919050565b60008160030b9050919050565b6000610f21610f1c83610ef4565b610f01565b9050919050565b60008160201c9050919050565b6000610f48610f4383610f28565b610f01565b9050919050565b60008160401c9050919050565b6000610f6f610f6a83610f4f565b610f01565b9050919050565b60008160601c9050919050565b6000610f96610f9183610f76565b610f01565b9050919050565b60008160801c9050919050565b6000610fbd610fb883610f9d565b610f01565b9050919050565b60008160a01c9050919050565b6000610fe4610fdf83610fc4565b610f01565b9050919050565b60008160c01c9050919050565b600061100b61100683610feb565b610f01565b9050919050565b60008160e01c9050919050565b600061103261102d83611012565b610f01565b9050919050565b61104281610ec5565b61104c8184610ed0565b92508261105883610edb565b6000600115611145575b836001600803820110156111445781546110848761107f83610f0e565b610ee5565b60208701965061109c8761109783610f35565b610ee5565b6020870196506110b4876110af83610f5c565b610ee5565b6020870196506110cc876110c783610f83565b610ee5565b6020870196506110e4876110df83610faa565b610ee5565b6020870196506110fc876110f783610fd1565b610ee5565b6020870196506111148761110f83610ff8565b610ee5565b60208701965061112c876111278361101f565b610ee5565b60208701965060018301925050600881019050611062565b5b600115611280578154600115611174576111678761116283610f0e565b610ee5565b6020870196506001820191505b60011561119a5761118d8761118883610f35565b610ee5565b6020870196506001820191505b6001156111c0576111b3876111ae83610f5c565b610ee5565b6020870196506001820191505b6001156111e6576111d9876111d483610f83565b610ee5565b6020870196506001820191505b60001561120c576111ff876111fa83610faa565b610ee5565b6020870196506001820191505b600015611232576112258761122083610fd1565b610ee5565b6020870196506001820191505b6000156112585761124b8761124683610ff8565b610ee5565b6020870196506001820191505b60001561127e576112718761126c8361101f565b610ee5565b6020870196506001820191505b505b505050505050565b611291816109db565b82525050565b60006101a0820190506112ad6000830185611039565b6112bb610180830184611288565b9392505050565b60006112cd82610941565b91506112d883610941565b92508261ffff038211156112ef576112ee610b10565b5b82820190509291505056fea2646970667358221220629e7cea4c40579bfc959c1601cdd52d595c3ce8fe0c7b9f9ea7b2b3a8c5223464736f6c634300080b0033",
  "immutableReferences": {},
  "source": "// SPDX-License-Identifier: GPL-3.0\n\npragma solidity >=0.7.0 <0.9.0;\n\nimport \"./GridBalance.sol\";\n\n/**\n * @title Prosumer\n * @dev Register current consumption\n */\ncontract Prosumer {\n    address private gridBalanceContract;\n    address private prosumerAddress;\n\n    uint32 threshold;\n    int32[12] private DRSignal;\n    int32[12] private baselineValues;\n    uint16 private DRIndex;\n    uint16 private baselineIndex;\n    uint32 private DRLength;\n    int32 private balance;\n    bytes32 private hash;\n\n    event valueRegistered(address indexed prosumerAddress, int256 value);\n    event registeredDRSignal(address indexed prosumerAddress, int32[12] DRSignal, uint32 DRLength);\n    \n    /**\n     * @dev Set prosumer account address and grid balance SC address\n     * @param _gridBalanceContract address of grid balance SC\n     * @param _prosumerAddress address of prosumer account\n     */\n    constructor(address _gridBalanceContract, address _prosumerAddress, uint32 _threshold) {\n        gridBalanceContract = _gridBalanceContract;\n        prosumerAddress = _prosumerAddress;\n        threshold = _threshold;\n        DRIndex = 0;\n        DRLength = 0;\n        baselineIndex = 0;\n    }\n\n    function increaseIndex(uint16 _index) private pure returns (uint16) {\n        _index += 1;\n        if (_index == 12)\n            _index = 0;\n        return _index;\n    }\n\n    /**\n     * @dev Register new consumption value\n     * @param value New consumption value (in W)\n     */\n    function registerValue(int32 value) external {        \n        // require(prosumerAddress == msg.sender);\n        \n        emit valueRegistered(prosumerAddress, value);\n\n        GridBalance gridContract = GridBalance(gridBalanceContract);\n        int32 requiredValue;\n        if (DRLength < DRIndex)\n            requiredValue = DRSignal[DRIndex];\n        else\n            requiredValue = baselineValues[baselineIndex];\n\n        int32 diff = requiredValue - value;\n        diff = 0 - diff;\n        uint32 diffAbs = uint32(diff);\n        uint32 rewardRate = gridContract.getRewardRate();\n\n        if (diffAbs > threshold) {\n            balance -= (100 * int32(diffAbs - threshold)) * int32(rewardRate) / int32(threshold);\n        }\n        else if (diffAbs < threshold) {\n            balance += (100 * int32(threshold - diffAbs)) * int32(rewardRate) / int32(threshold);\n        }\n        gridContract.registerProsumerImbalance(diff);\n        DRIndex = increaseIndex(DRIndex);\n    }\n\n    function actualizeBaseline(int32[] calldata _baselineValues, uint16 _length) external {\n        // require(_length == 12);\n        // require(prosumerAddress == msg.sender);\n\n        // TODO limit how often you can call it and emit event to be interpreted by tso\n\n        baselineIndex = 0;\n        for (uint16 i = 0; i < _length; i++) \n            baselineValues[i] = _baselineValues[i];\n    }\n\n    function actualizeDRSignal(int32 _balanceState, uint32 _DRLength) public {\n        // require(msg.sender == gridBalanceContract);\n        // require(_DRLength <= 12);\n        DRIndex = 0;\n        for (uint i = 0; i < _DRLength; i++) {\n            if (baselineValues[i] == 0)\n                DRSignal[i] = 0;\n            else\n                DRSignal[i] = baselineValues[i] + (_balanceState/baselineValues[i]);\n        }\n        DRLength = _DRLength;\n        emit registeredDRSignal(prosumerAddress, DRSignal, DRLength);\n    }\n\n    \n    function registerHash(bytes32 _hash) external {\n        hash = _hash;\n    }\n\n    function getHash() public view returns (bytes32) {\n        return hash;\n    }\n}\n",
  "sourcePath": "/app/contracts/Prosumer.sol",
  "compiler": {
    "name": "solc",
    "version": "0.8.11+commit.d7f03943.Emscripten.clang"
  },
  "schemaVersion": "3.4.7",
  "updatedAt": "2022-07-03T11:31:51.682Z",
  "devdoc": {
    "details": "Register current consumption",
    "kind": "dev",
    "methods": {
      "constructor": {
        "details": "Set prosumer account address and grid balance SC address",
        "params": {
          "_gridBalanceContract": "address of grid balance SC",
          "_prosumerAddress": "address of prosumer account"
        }
      },
      "registerValue(int32)": {
        "details": "Register new consumption value",
        "params": {
          "value": "New consumption value (in W)"
        }
      }
    },
    "title": "Prosumer",
    "version": 1
  },
  "userdoc": {
    "kind": "user",
    "methods": {},
    "version": 1
  }
}