{
  "contractName": "GridBalance",
  "abi": [
    {
      "anonymous": false,
      "inputs": [
        {
          "indexed": false,
          "internalType": "address",
          "name": "contractAddress",
          "type": "address"
        },
        {
          "indexed": false,
          "internalType": "address",
          "name": "prosumerAddress",
          "type": "address"
        }
      ],
      "name": "ProsumerRegistered",
      "type": "event"
    },
    {
      "inputs": [],
      "name": "registerProsumer",
      "outputs": [
        {
          "internalType": "address",
          "name": "",
          "type": "address"
        }
      ],
      "stateMutability": "nonpayable",
      "type": "function"
    }
  ],
  "bytecode": "0x608060405234801561001057600080fd5b506107d2806100206000396000f3fe608060405234801561001057600080fd5b506004361061002b5760003560e01c8063a381888014610030575b600080fd5b61003861004e565b6040516100459190610231565b60405180910390f35b600080339050600073ffffffffffffffffffffffffffffffffffffffff166000808373ffffffffffffffffffffffffffffffffffffffff1673ffffffffffffffffffffffffffffffffffffffff16815260200190815260200160002060009054906101000a900473ffffffffffffffffffffffffffffffffffffffff1673ffffffffffffffffffffffffffffffffffffffff16146100eb57600080fd5b600030826040516100fb906101e3565b61010692919061024c565b604051809103906000f080158015610122573d6000803e3d6000fd5b5090507f04de67d0ff102ed2c1cafb4c71015decb7b86fe76fdd68cb891f3dd84dccb1ca818360405161015692919061024c565b60405180910390a1806000808473ffffffffffffffffffffffffffffffffffffffff1673ffffffffffffffffffffffffffffffffffffffff16815260200190815260200160002060006101000a81548173ffffffffffffffffffffffffffffffffffffffff021916908373ffffffffffffffffffffffffffffffffffffffff160217905550809250505090565b6105278061027683390190565b600073ffffffffffffffffffffffffffffffffffffffff82169050919050565b600061021b826101f0565b9050919050565b61022b81610210565b82525050565b60006020820190506102466000830184610222565b92915050565b60006040820190506102616000830185610222565b61026e6020830184610222565b939250505056fe608060405234801561001057600080fd5b506040516105273803806105278339818101604052810190610032919061011d565b816000806101000a81548173ffffffffffffffffffffffffffffffffffffffff021916908373ffffffffffffffffffffffffffffffffffffffff16021790555080600160006101000a81548173ffffffffffffffffffffffffffffffffffffffff021916908373ffffffffffffffffffffffffffffffffffffffff160217905550505061015d565b600080fd5b600073ffffffffffffffffffffffffffffffffffffffff82169050919050565b60006100ea826100bf565b9050919050565b6100fa816100df565b811461010557600080fd5b50565b600081519050610117816100f1565b92915050565b60008060408385031215610134576101336100ba565b5b600061014285828601610108565b925050602061015385828601610108565b9150509250929050565b6103bb8061016c6000396000f3fe608060405234801561001057600080fd5b50600436106100365760003560e01c80630ff4c9161461003b578063752d11901461006b575b600080fd5b61005560048036038101906100509190610210565b610087565b6040516100629190610256565b60405180910390f35b6100856004803603810190610080919061029d565b610101565b005b60003373ffffffffffffffffffffffffffffffffffffffff16600160009054906101000a900473ffffffffffffffffffffffffffffffffffffffff1673ffffffffffffffffffffffffffffffffffffffff16146100e357600080fd5b600282610b4081106100f8576100f76102dd565b5b01549050919050565b3373ffffffffffffffffffffffffffffffffffffffff16600160009054906101000a900473ffffffffffffffffffffffffffffffffffffffff1673ffffffffffffffffffffffffffffffffffffffff161461015b57600080fd5b81600282610b408110610171576101706102dd565b5b01819055507f2584888d5978de628eca5fb81356074833d5c65eca5fed7371b6d8e08234ff5a600160009054906101000a900473ffffffffffffffffffffffffffffffffffffffff16826040516101c992919061035c565b60405180910390a15050565b600080fd5b6000819050919050565b6101ed816101da565b81146101f857600080fd5b50565b60008135905061020a816101e4565b92915050565b600060208284031215610226576102256101d5565b5b6000610234848285016101fb565b91505092915050565b6000819050919050565b6102508161023d565b82525050565b600060208201905061026b6000830184610247565b92915050565b61027a8161023d565b811461028557600080fd5b50565b60008135905061029781610271565b92915050565b600080604083850312156102b4576102b36101d5565b5b60006102c285828601610288565b92505060206102d3858286016101fb565b9150509250929050565b7f4e487b7100000000000000000000000000000000000000000000000000000000600052603260045260246000fd5b600073ffffffffffffffffffffffffffffffffffffffff82169050919050565b60006103378261030c565b9050919050565b6103478161032c565b82525050565b610356816101da565b82525050565b6000604082019050610371600083018561033e565b61037e602083018461034d565b939250505056fea264697066735822122082c51e4317b45cd6b152acee347545950b918bb4ac38286c4d5d947517d1b72164736f6c634300080b0033a264697066735822122038d6f294db0c7b97bafb2aed27161ac47a03ff38773c8c93ee6e2bc46bff016964736f6c634300080b0033",
  "immutableReferences": {},
  "source": "// SPDX-License-Identifier: MIT\npragma solidity >=0.4.22 <0.9.0;\nimport \"./Prosumer.sol\";\n\ncontract GridBalance {\n    mapping(address => address) prosumerContracts;\n    event ProsumerRegistered(address contractAddress, address prosumerAddress);\n\n    function registerProsumer() public returns (address) {\n        address prosumerAddress = msg.sender;\n        require(prosumerContracts[prosumerAddress] == address(0x0));\n        address newProsumer = address(\n            new Prosumer(address(this), prosumerAddress)\n        );\n        emit ProsumerRegistered(newProsumer, prosumerAddress);\n        prosumerContracts[prosumerAddress] = newProsumer;\n        return newProsumer;\n    }\n}\n",
  "sourcePath": "/app/contracts/GridBalance.sol",
  "compiler": {
    "name": "solc",
    "version": "0.8.11+commit.d7f03943.Emscripten.clang"
  },
  "schemaVersion": "3.4.7",
  "updatedAt": "2022-05-10T09:54:42.483Z",
  "networkType": "ethereum",
  "devdoc": {
    "kind": "dev",
    "methods": {},
    "version": 1
  },
  "userdoc": {
    "kind": "user",
    "methods": {},
    "version": 1
  }
}