{
  "contractName": "Prosumer",
  "abi": [
    {
      "inputs": [
        {
          "internalType": "address",
          "name": "_gridBalanceContract",
          "type": "address"
        },
        {
          "internalType": "address",
          "name": "_prosumerAddress",
          "type": "address"
        }
      ],
      "stateMutability": "nonpayable",
      "type": "constructor"
    },
    {
      "inputs": [
        {
          "internalType": "int256",
          "name": "value",
          "type": "int256"
        },
        {
          "internalType": "uint256",
          "name": "index",
          "type": "uint256"
        }
      ],
      "name": "registerValue",
      "outputs": [],
      "stateMutability": "nonpayable",
      "type": "function"
    },
    {
      "inputs": [
        {
          "internalType": "uint256",
          "name": "index",
          "type": "uint256"
        }
      ],
      "name": "getValue",
      "outputs": [
        {
          "internalType": "int256",
          "name": "",
          "type": "int256"
        }
      ],
      "stateMutability": "view",
      "type": "function"
    }
  ],
  "bytecode": "0x608060405234801561001057600080fd5b506040516103f93803806103f98339818101604052810190610032919061011d565b816000806101000a81548173ffffffffffffffffffffffffffffffffffffffff021916908373ffffffffffffffffffffffffffffffffffffffff16021790555080600160006101000a81548173ffffffffffffffffffffffffffffffffffffffff021916908373ffffffffffffffffffffffffffffffffffffffff160217905550505061015d565b600080fd5b600073ffffffffffffffffffffffffffffffffffffffff82169050919050565b60006100ea826100bf565b9050919050565b6100fa816100df565b811461010557600080fd5b50565b600081519050610117816100f1565b92915050565b60008060408385031215610134576101336100ba565b5b600061014285828601610108565b925050602061015385828601610108565b9150509250929050565b61028d8061016c6000396000f3fe608060405234801561001057600080fd5b50600436106100365760003560e01c80630ff4c9161461003b578063752d11901461006b575b600080fd5b6100556004803603810190610050919061015b565b610087565b60405161006291906101a1565b60405180910390f35b610085600480360381019061008091906101e8565b6100a7565b005b6000600282610b40811061009e5761009d610228565b5b01549050919050565b3373ffffffffffffffffffffffffffffffffffffffff16600160009054906101000a900473ffffffffffffffffffffffffffffffffffffffff1673ffffffffffffffffffffffffffffffffffffffff161461010157600080fd5b81600282610b40811061011757610116610228565b5b01819055505050565b600080fd5b6000819050919050565b61013881610125565b811461014357600080fd5b50565b6000813590506101558161012f565b92915050565b60006020828403121561017157610170610120565b5b600061017f84828501610146565b91505092915050565b6000819050919050565b61019b81610188565b82525050565b60006020820190506101b66000830184610192565b92915050565b6101c581610188565b81146101d057600080fd5b50565b6000813590506101e2816101bc565b92915050565b600080604083850312156101ff576101fe610120565b5b600061020d858286016101d3565b925050602061021e85828601610146565b9150509250929050565b7f4e487b7100000000000000000000000000000000000000000000000000000000600052603260045260246000fdfea2646970667358221220706c097efac188853da03b5de8a85398a29aeb36df52896e5cb36bcf24f9b11364736f6c634300080b0033",
  "immutableReferences": {},
  "source": "// SPDX-License-Identifier: MIT\npragma solidity >=0.4.22 <0.9.0;\nimport \"./GridBalance.sol\";\n\ncontract Prosumer {\n    address gridBalanceContract;\n    address prosumerAddress;\n    int256[2880] registeredValues;\n\n    constructor(address _gridBalanceContract, address _prosumerAddress) {\n        gridBalanceContract = _gridBalanceContract;\n        prosumerAddress = _prosumerAddress;\n    }\n\n    function registerValue(int256 value, uint256 index) public {\n        require(prosumerAddress == msg.sender);\n        registeredValues[index] = value;\n    }\n\n    function getValue(uint256 index) public view returns (int256) {\n        return registeredValues[index];\n    }\n}\n",
  "sourcePath": "/app/contracts/Prosumer.sol",
  "compiler": {
    "name": "solc",
    "version": "0.8.11+commit.d7f03943.Emscripten.clang"
  },
  "schemaVersion": "3.4.7",
  "updatedAt": "2022-05-04T15:56:39.373Z",
  "devdoc": {
    "kind": "dev",
    "methods": {},
    "version": 1
  },
  "userdoc": {
    "kind": "user",
    "methods": {},
    "version": 1
  }
}